:100000000C942A000C943F000C943F000C943F0089
:100010000C943F000C943F000C943F000C943F0064
:100020000C943F000C943F000C943F000C943F0054
:100030000C943F000C943F000C943F000C943F0044
:100040000C943F000C943F000C943F000C943F0034
:100050000C943F0011241FBECFE5D8E0DEBFCDBF1A
:1000600010E0A0E6B0E0E4EBF0E202C005900D92F3
:10007000AE36B107D9F70E94EC0F0C9458100C94CF
:100080000000EF92FF920F931F937B018C0120E001
:1000900030E040E05FE40E94410388238CF0C80117
:1000A000B70120E030E040E05FE40E94B9010E9427
:1000B000A1039B01AC01205030404040504806C095
:1000C000C801B7010E94A1039B01AC01B901CA019B
:1000D0001F910F91FF90EF900895A0E0B0E0E3E74B
:1000E000F0E00C942110DC012B01FA019C9192307C
:1000F00008F439C1EB018881823008F433C19430AF
:1001000069F4843009F02FC111969C91119789816F
:10011000981709F428C1A5E6B0E025C1843009F498
:1001200021C18230A9F4923009F01DC19A01AD01BC
:1001300088E0EA010990AE01E90109929E0181502F
:10014000C1F7E201898111969C918923818308C1BD
:10015000923009F407C112962D903C901397EB0151
:100160008A819B811496AD90BD90CD90DC901797BD
:10017000EC80FD800E811F819101281B390BB90194
:1001800037FF04C066277727621B730B6032710547
:100190000CF061C0121613066CF537014801062EEB
:1001A00004C096948794779467940A94D2F721E0D8
:1001B00030E040E050E004C0220F331F441F551FC1
:1001C0006A95D2F721503040404050402E213F21C7
:1001D00040235123211531054105510521F021E02E
:1001E00030E040E050E079018A01E628F72808294C
:1001F00019293CC0232BD1F1260E371E35014601AB
:10020000062E04C096948794779467940A94D2F744
:1002100021E030E040E050E004C0220F331F441FD3
:10022000551F6A95D2F721503040404050402A2156
:100230003B214C215D21211531054105510521F05E
:1002400021E030E040E050E059016A01A628B728DB
:10025000C828D9280BC0821593052CF01C01AA24AC
:10026000BB24650103C0EE24FF24870111969C91F5
:10027000D20111968C91981709F445C0992339F051
:10028000A80197012A193B094C095D0906C0A6017E
:1002900095012E193F09400B510B57FD08C01182E3
:1002A0003382228224833583468357831DC081E0B5
:1002B00081833382228288279927DC01821B930B5A
:1002C000A40BB50B84839583A683B7830DC0220F3F
:1002D000331F441F551F24833583468357838281F0
:1002E000938101979383828324813581468157814D
:1002F000DA01C9010197A109B1098F5F9F4FAF4F83
:10030000BF4328F30BC0918333822282EA0CFB1C8B
:100310000C1D1D1DE482F5820683178383E0808314
:10032000248135814681578157FF1AC0C901AA2708
:1003300097FDA095BA2F81709070A070B0705695FF
:10034000479537952795822B932BA42BB52B848328
:100350009583A683B7838281938101969383828359
:10036000DF0101C0D201CD01CDB7DEB7E2E10C94CF
:100370003D10A0E2B0E0EFEBF1E00C942D106983AA
:100380007A838B839C832D833E834F835887E9E058
:10039000EE2EF12CEC0EFD1ECE010196B7010E944F
:1003A000CA048E010F5E1F4FCE010596B8010E9450
:1003B000CA048A8991E089278A8BC701B801AE01F6
:1003C000475E5F4F0E946D000E94F503A096E6E035
:1003D0000C944910A0E2B0E0E0EFF1E00C942D1095
:1003E00069837A838B839C832D833E834F835887D5
:1003F000F9E0EF2EF12CEC0EFD1ECE010196B701B7
:100400000E94CA048E010F5E1F4FCE010596B801EF
:100410000E94CA04C701B801AE01475E5F4F0E9447
:100420006D000E94F503A096E6E00C944910A0E24E
:10043000B0E0EDE1F2E00C94211069837A838B83C4
:100440009C832D833E834F835887CE010196BE0146
:10045000675F7F4F0E94CA04CE010596BE016F5EA2
:100460007F4F0E94CA049985923088F08989823032
:10047000C8F0943019F4823051F404C0843029F467
:10048000923081F485E690E0C6C0923049F420E0D5
:100490009A858A89981321E02A87CE010996BBC0E4
:1004A000823049F420E09A858A89981321E02A8BCA
:1004B000CE014196B0C02D843E844F8458886D880B
:1004C0007E888F88988CEE24FF248701AA24BB2481
:1004D000650140E050E060E070E0E0E0F0E0C10184
:1004E00081709070892BE9F0E60CF71C081D191D2E
:1004F0009A01AB012A0D3B1D4C1D5D1D80E090E073
:10050000A0E0B0E0E614F7040805190520F481E046
:1005100090E0A0E0B0E0BA01A901480F591F6A1F9E
:100520007B1FAA0CBB1CCC1CDD1C97FE08C081E005
:1005300090E0A0E0B0E0A82AB92ACA2ADB2A3196C6
:10054000E032F10549F0660C771C881C991C569422
:10055000479437942794C3CFFA85EA892B893C893D
:100560008B859C85280F391F2E5F3F4F17C0CA010E
:1005700081709070892B61F016950795F794E79438
:1005800080E090E0A0E0B0E8E82AF92A0A2B1B2BD3
:1005900076956795579547952F5F3F4F77FDE7CF46
:1005A0000CC0440F551F661F771F17FD4160EE0CEE
:1005B000FF1C001F111F21503040403090E05907B0
:1005C00090E0690790E4790760F32B8F3C8FDB01A3
:1005D000CA018F779070A070B07080349105A1052A
:1005E000B10561F447FD0AC0E114F10401051105EC
:1005F00029F0405C5F4F6F4F7F4F40781A8EFE1797
:1006000011F081E08A8F4D8F5E8F6F8F78A383E02A
:10061000898FCE0149960E94F503A096E2E10C94E1
:100620003D10A8E1B0E0E7E1F3E00C942D10698300
:100630007A838B839C832D833E834F83588789E005
:10064000E82EF12CEC0EFD1ECE010196B7010E94A2
:10065000CA048E010F5E1F4FCE010596B8010E949D
:10066000CA048985823040F08989823028F0C70128
:10067000B8010E94420501C08FEF6896E6E00C9435
:100680004910A8E1B0E0E7E4F3E00C942D10698391
:100690007A838B839C832D833E834F83588789E0A5
:1006A000E82EF12CEC0EFD1ECE010196B7010E9442
:1006B000CA048E010F5E1F4FCE010596B8010E943D
:1006C000CA048985823040F08989823028F0C701C8
:1006D000B8010E94420501C08FEF6896E6E00C94D5
:1006E0004910A8E1B0E0E7E7F3E00C942D1069832E
:1006F0007A838B839C832D833E834F83588789E045
:10070000E82EF12CEC0EFD1ECE010196B7010E94E1
:10071000CA048E010F5E1F4FCE010596B8010E94DC
:10072000CA048985823040F08989823028F0C70167
:10073000B8010E94420501C081E06896E6E00C9491
:100740004910ACE0B0E0E7EAF3E00C9431106983C3
:100750007A838B839C83CE010196BE016B5F7F4FB2
:100760000E94CA048D81823061F1823050F1843060
:1007700021F48E81882351F12EC02F81388537FDD9
:1007800020C06E812F3131051CF06623F9F023C0A3
:100790008EE190E0821B930B29853A854B855C8521
:1007A00004C056954795379527958A95D2F76623C5
:1007B000B1F050954095309521953F4F4F4F5F4F89
:1007C0000EC020E030E040E050E009C02FEF3FEFE6
:1007D0004FEF5FE704C020E030E040E050E8B901AF
:1007E000CA012C96E2E00C944D10DF92EF92FF923A
:1007F0000F931F93FC01E480F58006811781D1805F
:100800008081823048F480E090E0A0E1B0E0E82A06
:10081000F92A0A2B1B2BA5C0843009F49FC0823013
:1008200021F4EE24FF24870105C0E114F104010541
:10083000110519F4E0E0F0E096C0628173819FEF4A
:10084000623879070CF05BC022E83FEF261B370BBC
:100850002A3131052CF020E030E040E050E02AC0A1
:10086000B801A701022E04C0769567955795479564
:100870000A94D2F781E090E0A0E0B0E004C0880FD5
:10088000991FAA1FBB1F2A95D2F70197A109B10989
:100890008E219F21A023B1230097A105B10521F04E
:1008A00081E090E0A0E0B0E09A01AB01282B392B69
:1008B0004A2B5B2BDA01C9018F779070A070B07062
:1008C00080349105A105B10539F427FF09C0205CEA
:1008D0003F4F4F4F5F4F04C0215C3F4F4F4F5F4F23
:1008E000E0E0F0E02030A0E03A07A0E04A07A0E412
:1008F0005A0710F0E1E0F0E079018A0127C0603882
:10090000710564F5FB01E158FF4FD801C7018F77EE
:100910009070A070B07080349105A105B10539F4D4
:10092000E7FE0DC080E490E0A0E0B0E004C08FE3FB
:1009300090E0A0E0B0E0E80EF91E0A1F1B1F17FFB1
:1009400005C016950795F794E794319687E01695BC
:100950000795F794E7948A95D1F705C0EE24FF2414
:100960008701EFEFF0E06E2F679566276795902F70
:100970009F77D794DD24D7948E2F8695492F462BC9
:10098000582F5D29B701CA011F910F91FF90EF9079
:10099000DF900895FC01DB01408151812281622FAB
:1009A0006F7770E0221F2227221F9381892F880FE3
:1009B000822B282F30E0991F9927991F11969C931D
:1009C000119721153105A9F54115510561057105ED
:1009D00011F482E037C082E89FEF13969C938E93C8
:1009E00012979A01AB0167E0220F331F441F551F76
:1009F0006A95D1F783E08C930DC0220F331F441FFB
:100A0000551F12968D919C911397019713969C9365
:100A10008E931297203080E0380780E0480780E40A
:100A2000580758F314962D933D934D935C93179765
:100A300008952F3F310579F4411551056105710580
:100A400019F484E08C93089564FF03C081E08C93D3
:100A500012C01C9210C02F57304013963C932E9317
:100A6000129783E08C9387E0440F551F661F771F12
:100A70008A95D1F7706414964D935D936D937C9332
:100A8000179708951F93DC01FB019C91923008F4A5
:100A900047C08081823008F443C0943051F41196ED
:100AA0001C91843099F58181682F70E0611B710978
:100AB0003FC0843021F0923031F48230B9F181812D
:100AC000882389F12DC011961C9111978230F1F085
:100AD00081811817D9F412962D913C911397828138
:100AE00093818217930794F028173907BCF0149666
:100AF0008D919D910D90BC91A02D248135814681D1
:100B00005781281739074A075B0718F4112341F06A
:100B10000AC082179307A407B50740F4112319F000
:100B200061E070E005C06FEF7FEF02C060E070E051
:100B3000CB011F910895DF93CF93CDB7DEB76697B2
:100B40000FB6F894DEBF0FBECDBF8B836C838B8155
:100B50008695869586958A838B81877089838A811D
:100B6000282F30E03E8B2D8B8D899E898130910519
:100B700009F4E1C02D893E89223031052CF48D899C
:100B80009E89009771F034C32D893E89223031054A
:100B900009F49BC18D899E898330910509F45FC258
:100BA00027C38C81813009F063C08981282F30E010
:100BB0003C8B2B8B8B899C8983309105D9F12B89B8
:100BC0003C89243031057CF48B899C8981309105E6
:100BD00029F12B893C892230310534F58B899C8998
:100BE0000097B1F005C32B893C892530310571F19F
:100BF0008B899C89853091051CF12B893C89263095
:100C0000310551F18B899C898730910559F1F0C2EA
:100C1000EAE3F0E0808181608083EAC2EAE3F0E009
:100C2000808182608083E4C2EAE3F0E080818460B6
:100C30008083DEC2EAE3F0E0808188608083D8C2EE
:100C4000EAE3F0E0808180618083D2C2EAE3F0E0F1
:100C5000808180628083CCC2EAE3F0E0808180649E
:100C60008083C6C2EAE3F0E0808180688083C0C2EE
:100C70008981282F30E03A8B298B89899A898330A2
:100C80009105D9F129893A89243031057CF4898983
:100C90009A898130910529F129893A8922303105D3
:100CA00034F589899A890097B1F0A2C229893A89D5
:100CB0002530310571F189899A89853091051CF1BA
:100CC00029893A892630310551F189899A898730F5
:100CD000910559F18DC2EAE3F0E080818E7F808337
:100CE00087C2EAE3F0E080818D7F808381C2EAE3FE
:100CF000F0E080818B7F80837BC2EAE3F0E080813B
:100D0000877F808375C2EAE3F0E080818F7E8083F5
:100D10006FC2EAE3F0E080818F7D808369C2EAE3FD
:100D2000F0E080818F7B808363C2EAE3F0E0808122
:100D30008F7780835DC28C81813009F063C08981A7
:100D4000282F30E0388B2F878F8598898330910545
:100D5000D9F12F853889243031057CF48F85988925
:100D60008130910529F12F8538892230310534F5FC
:100D70008F8598890097B1F03BC22F85388925303F
:100D8000310571F18F859889853091051CF12F858A
:100D900038892630310551F18F8598898730910542
:100DA00059F126C2E7E3F0E080818160808320C2B0
:100DB000E7E3F0E08081826080831AC2E7E3F0E03D
:100DC00080818460808314C2E7E3F0E080818860E2
:100DD00080830EC2E7E3F0E080818061808308C2F7
:100DE000E7E3F0E080818062808302C2E7E3F0E025
:100DF000808180648083FCC1E7E3F0E080818068CB
:100E00008083F6C18981282F30E03E872D878D852C
:100E10009E8583309105D9F12D853E85243031059D
:100E20007CF48D859E858130910529F12D853E8547
:100E30002230310534F58D859E850097B1F0D8C1FB
:100E40002D853E852530310571F18D859E85853056
:100E500091051CF12D853E852630310551F18D859A
:100E60009E858730910559F1C3C1E7E3F0E08081A9
:100E70008E7F8083BDC1E7E3F0E080818D7F80833A
:100E8000B7C1E7E3F0E080818B7F8083B1C1E7E306
:100E9000F0E08081877F8083ABC1E7E3F0E0808171
:100EA0008F7E8083A5C1E7E3F0E080818F7D808322
:100EB0009FC1E7E3F0E080818F7B808399C1E7E306
:100EC000F0E080818F77808393C18C81813009F03D
:100ED00063C08981282F30E03C872B878B859C85D8
:100EE00083309105D9F12B853C85243031057CF484
:100EF0008B859C858130910529F12B853C8522309D
:100F0000310534F58B859C850097B1F071C12B8537
:100F10003C852530310571F18B859C8585309105A7
:100F20001CF12B853C852630310551F18B859C8544
:100F30008730910559F15CC1E4E3F0E08081816084
:100F4000808356C1E4E3F0E080818260808350C1F9
:100F5000E4E3F0E08081846080834AC1E4E3F0E070
:100F600080818860808344C1E4E3F0E08081806117
:100F700080833EC1E4E3F0E080818062808338C1F9
:100F8000E4E3F0E080818064808332C1E4E3F0E058
:100F90008081806880832CC18981282F30E03A8746
:100FA000298789859A8583309105D9F129853A85E4
:100FB000243031057CF489859A858130910529F1A9
:100FC00029853A852230310534F589859A8500973F
:100FD000B1F00EC129853A852530310571F1898539
:100FE0009A85853091051CF129853A852630310591
:100FF00051F189859A858730910559F1F9C0E4E36B
:10100000F0E080818E7F8083F3C0E4E3F0E08081B4
:101010008D7F8083EDC0E4E3F0E080818B7F80836F
:10102000E7C0E4E3F0E08081877F8083E1C0E4E310
:10103000F0E080818F7E8083DBC0E4E3F0E080819C
:101040008F7D8083D5C0E4E3F0E080818F7B808357
:10105000CFC0E4E3F0E080818F778083C9C08C81CA
:10106000813009F063C08981282F30E038872F83D1
:101070008F81988583309105D9F12F81388524306F
:1010800031057CF48F8198858130910529F12F817C
:1010900038852230310534F58F8198850097B1F07D
:1010A000A7C02F8138852530310571F18F81988552
:1010B000853091051CF12F8138852630310551F19D
:1010C0008F8198858730910559F192C0E1E3F0E076
:1010D0008081816080838CC0E1E3F0E08081826068
:1010E000808386C0E1E3F0E080818460808380C0FB
:1010F000E1E3F0E08081886080837AC0E1E3F0E0A2
:1011000080818061808374C0E1E3F0E0808180624F
:1011100080836EC0E1E3F0E080818064808368C0FA
:10112000E1E3F0E080818068808362C08981282FBC
:1011300030E03E832D838D819E8183309105D9F1EE
:101140002D813E81243031057CF48D819E8181305A
:10115000910529F12D813E812230310534F58D81B3
:101160009E810097B1F044C02D813E81253031052C
:1011700071F18D819E81853091051CF12D813E811B
:101180002630310551F18D819E818730910559F1CD
:101190002FC0E1E3F0E080818E7F808329C0E1E30E
:1011A000F0E080818D7F808323C0E1E3F0E08081E7
:1011B0008B7F80831DC0E1E3F0E08081877F8083A7
:1011C00017C0E1E3F0E080818F7E808311C0E1E30E
:1011D000F0E080818F7D80830BC0E1E3F0E08081CF
:1011E0008F7B808305C0E1E3F0E080818F7780838F
:1011F00066960FB6F894DEBF0FBECDBFCF91DF91DC
:101200000895DF93CF93CDB7DEB766970FB6F89406
:10121000DEBF0FBECDBF8B836C838B818695869599
:1012200086958A838B81877089838A81282F30E015
:101230003E8B2D8B8D899E898130910509F4E1C00B
:101240002D893E89223031052CF48D899E890097A5
:1012500071F034C32D893E892230310509F49BC1D8
:101260008D899E898330910509F45FC227C38C81E3
:10127000813009F063C08981282F30E03C8B2B8BB3
:101280008B899C8983309105D9F12B893C89243045
:1012900031057CF48B899C898130910529F12B895A
:1012A0003C892230310534F58B899C890097B1F057
:1012B00005C32B893C892530310571F18B899C89C7
:1012C000853091051CF12B893C892630310551F17F
:1012D0008B899C898730910559F1F0C2EBE3F0E0EE
:1012E000808181608083EAC2EBE3F0E080818260EC
:1012F0008083E4C2EBE3F0E0808184608083DEC21F
:10130000EBE3F0E0808188608083D8C2EBE3F0E01B
:10131000808180618083D2C2EBE3F0E080818062D3
:101320008083CCC2EBE3F0E0808180648083C6C21E
:10133000EBE3F0E0808180688083C0C28981282F40
:1013400030E03A8B298B89899A8983309105D9F1CC
:1013500029893A89243031057CF489899A89813038
:10136000910529F129893A892230310534F5898995
:101370009A890097B1F0A2C229893A8925303105AE
:1013800071F189899A89853091051CF129893A89F9
:101390002630310551F189899A898730910559F1B3
:1013A0008DC2EBE3F0E080818E7F808387C2EBE328
:1013B000F0E080818D7F808381C2EBE3F0E080816B
:1013C0008B7F80837BC2EBE3F0E08081877F80832B
:1013D00075C2EBE3F0E080818F7E80836FC2EBE328
:1013E000F0E080818F7D808369C2EBE3F0E0808153
:1013F0008F7B808363C2EBE3F0E080818F77808313
:101400005DC28C81813009F063C08981282F30E072
:10141000388B2F878F85988983309105D9F12F8557
:101420003889243031057CF48F8598898130910585
:1014300029F12F8538892230310534F58F85988937
:101440000097B1F03BC22F8538892530310571F105
:101450008F859889853091051CF12F853889263034
:10146000310551F18F8598898730910559F126C250
:10147000E8E3F0E080818160808320C2E8E3F0E06F
:101480008081826080831AC2E8E3F0E0808184601A
:10149000808314C2E8E3F0E08081886080830EC21C
:1014A000E8E3F0E080818061808308C2E8E3F0E057
:1014B00080818062808302C2E8E3F0E08081806402
:1014C0008083FCC1E8E3F0E0808180688083F6C11E
:1014D0008981282F30E03E872D878D859E8583303A
:1014E0009105D9F12D853E85243031057CF48D851B
:1014F0009E858130910529F12D853E85223031056B
:1015000034F58D859E850097B1F0D8C12D853E8537
:101510002530310571F18D859E85853091051CF151
:101520002D853E852630310551F18D859E8587308C
:10153000910559F1C3C1E8E3F0E080818E7F80839B
:10154000BDC1E8E3F0E080818D7F8083B7C1E8E32F
:10155000F0E080818B7F8083B1C1E8E3F0E080819F
:10156000877F8083ABC1E8E3F0E080818F7E80835A
:10157000A5C1E8E3F0E080818F7D80839FC1E8E32F
:10158000F0E080818F7B808399C1E8E3F0E0808187
:101590008F77808393C18C81813009F063C089810A
:1015A000282F30E03C872B878B859C8583309105E5
:1015B000D9F12B853C85243031057CF48B859C85C5
:1015C0008130910529F12B853C852230310534F598
:1015D0008B859C850097B1F071C12B853C852530AA
:1015E000310571F18B859C85853091051CF12B852A
:1015F0003C852630310551F18B859C8587309105DE
:1016000059F15CC1E5E3F0E080818160808356C1DF
:10161000E5E3F0E080818260808350C1E5E3F0E0A3
:101620008081846080834AC1E5E3F0E08081886046
:10163000808344C1E5E3F0E08081806180833EC126
:10164000E5E3F0E080818062808338C1E5E3F0E08B
:1016500080818064808332C1E5E3F0E0808180682E
:1016600080832CC18981282F30E03A87298789859A
:101670009A8583309105D9F129853A852430310541
:101680007CF489859A858130910529F129853A85EF
:101690002230310534F589859A850097B1F00EC165
:1016A00029853A852530310571F189859A858530FE
:1016B00091051CF129853A852630310551F189853E
:1016C0009A858730910559F1F9C0E5E3F0E0808112
:1016D0008E7F8083F3C0E5E3F0E080818D7F80839F
:1016E000EDC0E5E3F0E080818B7F8083E7C0E5E338
:1016F000F0E08081877F8083E1C0E5E3F0E08081D6
:101700008F7E8083DBC0E5E3F0E080818F7D808386
:10171000D5C0E5E3F0E080818F7B8083CFC0E5E337
:10172000F0E080818F778083C9C08C81813009F09F
:1017300063C08981282F30E038872F838F81988577
:1017400083309105D9F12F813885243031057CF41F
:101750008F8198858130910529F12F81388522303C
:10176000310534F58F8198850097B1F0A7C02F819E
:1017700038852530310571F18F8198858530910547
:101780001CF12F8138852630310551F18F819885E4
:101790008730910559F192C0E2E3F0E080818160E9
:1017A00080838CC0E2E3F0E080818260808386C029
:1017B000E2E3F0E080818460808380C0E2E3F0E0D7
:1017C0008081886080837AC0E2E3F0E0808180617C
:1017D000808374C0E2E3F0E08081806280836EC029
:1017E000E2E3F0E080818064808368C0E2E3F0E0BF
:1017F00080818068808362C08981282F30E03E83A9
:101800002D838D819E8183309105D9F12D813E817B
:10181000243031057CF48D819E818130910529F140
:101820002D813E812230310534F58D819E810097D6
:10183000B1F044C02D813E812530310571F18D819B
:101840009E81853091051CF12D813E812630310528
:1018500051F18D819E818730910559F12FC0E2E3CE
:10186000F0E080818E7F808329C0E2E3F0E0808118
:101870008D7F808323C0E2E3F0E080818B7F8083D3
:101880001DC0E2E3F0E08081877F808317C0E2E340
:10189000F0E080818F7E808311C0E2E3F0E0808100
:1018A0008F7D80830BC0E2E3F0E080818F7B8083BB
:1018B00005C0E2E3F0E080818F77808366960FB603
:1018C000F894DEBF0FBECDBFCF91DF910895DF93B7
:1018D000CF93CDB7DEB72F970FB6F894DEBF0FBE0C
:1018E000CDBF8F8780E060E00E94010981E060E069
:1018F0000E94010982E061E00E9401098F85982F12
:10190000917088E1692F0E9401098F858695982F33
:10191000917089E1692F0E9401098F8586958695CE
:10192000982F91708AE1692F0E9401098F85869511
:1019300086958695982F91708BE1692F0E940109F9
:101940008F8582958F70982F91708CE1692F0E94FE
:1019500001098F85829586958770982F91708DE10A
:10196000692F0E9401098F858295869586958370DF
:10197000982F91708EE1692F0E9401098F85982F11
:10198000991F9927991F8FE1692F0E94010980E013
:1019900090E0A0E0B0E48B879C87AD87BE876B8525
:1019A0007C858D859E8520E030E04AEF54E40E94DE
:1019B0001702DC01CB018F839887A987BA876F81D3
:1019C000788589859A8520E030E040E85FE30E94D1
:1019D000710388232CF481E090E09E838D833FC0C7
:1019E0006F81788589859A8520E03FEF4FE757E43E
:1019F0000E94110318164CF56B857C858D859E859C
:101A000020E030E040E251E40E941702DC01CB010B
:101A1000BC01CD010E944100DC01CB019E838D837E
:101A20000FC088EC90E09C838B838B819C81019715
:101A3000F1F79C838B838D819E8101979E838D839B
:101A40008D819E81009769F714C06F8178858985A3
:101A50009A850E944100DC01CB019E838D838D819C
:101A60009E819A83898389819A810197F1F79A836C
:101A7000898382E060E00E9401092F960FB6F894F6
:101A8000DEBF0FBECDBFCF91DF910895DF93CF931F
:101A9000CDB7DEB7AA970FB6F894DEBF0FBECDBFA5
:101AA00080E061E00E949B0581E061E00E949B056F
:101AB00082E061E00E949B0588E161E00E949B0555
:101AC00089E161E00E949B058AE161E00E949B053B
:101AD0008BE161E00E949B058CE161E00E949B0527
:101AE0008DE161E00E949B058EE161E00E949B0513
:101AF0008FE161E00E949B0588E30E94670C80E013
:101B000090E0A0E0B0E48FA398A7A9A7BAA76FA11F
:101B100078A589A59AA520E030E04AEF54E40E9418
:101B20001702DC01CB018BA39CA3ADA3BEA36BA1C9
:101B30007CA18DA19EA120E030E040E85FE30E94FF
:101B4000710388232CF481E090E09AA389A33FC01D
:101B50006BA17CA18DA19EA120E03FEF4FE757E450
:101B60000E94110318164CF56FA178A589A59AA5B6
:101B700020E030E040E251E40E941702DC01CB019A
:101B8000BC01CD010E944100DC01CB019AA389A3D5
:101B90000FC088EC90E098A38F8F8F8D98A101974C
:101BA000F1F798A38F8F89A19AA101979AA389A38E
:101BB00089A19AA1009769F714C06BA17CA18DA19E
:101BC0009EA10E944100DC01CB019AA389A389A1B7
:101BD0009AA19E8F8D8F8D8D9E8D0197F1F79E8F8F
:101BE0008D8F8CE00E94670C80E090E0A0E0B0E474
:101BF000898F9A8FAB8FBC8F698D7A8D8B8D9C8DE1
:101C000020E030E04AEF54E40E941702DC01CB01EF
:101C10008D8B9E8BAF8BB88F6D897E898F89988DC8
:101C200020E030E040E85FE30E94710388232CF459
:101C300081E090E09C8B8B8B3FC06D897E898F8982
:101C4000988D20E03FEF4FE757E40E9411031816EC
:101C50004CF5698D7A8D8B8D9C8D20E030E040E2D3
:101C600051E40E941702DC01CB01BC01CD010E94AE
:101C70004100DC01CB019C8B8B8B0FC088EC90E08A
:101C80009A8B898B89899A890197F1F79A8B898B2D
:101C90008B899C8901979C8B8B8B8B899C89009766
:101CA00069F714C06D897E898F89988D0E944100E3
:101CB000DC01CB019C8B8B8B8B899C89988B8F87CC
:101CC0008F8598890197F1F7988B8F8781E00E9423
:101CD000670C80E090E0A0E0B0E48B879C87AD8744
:101CE000BE876B857C858D859E8520E030E04AEF40
:101CF00054E40E941702DC01CB018F839887A987E7
:101D0000BA876F81788589859A8520E030E040E840
:101D10005FE30E94710388232CF481E090E09E83AE
:101D20008D833FC06F81788589859A8520E03FEF5C
:101D30004FE757E40E94110318164CF56B857C851C
:101D40008D859E8520E030E040E251E40E9417023C
:101D5000DC01CB01BC01CD010E944100DC01CB01C3
:101D60009E838D830FC088EC90E09C838B838B8156
:101D70009C810197F1F79C838B838D819E810197D4
:101D80009E838D838D819E81009769F714C06F813A
:101D9000788589859A850E944100DC01CB019E836C
:101DA0008D838D819E819A83898389819A81019710
:101DB000F1F79A838983AA960FB6F894DEBF0FBE17
:101DC000CDBFCF91DF910895DF93CF93CDB7DEB72D
:101DD0002F970FB6F894DEBF0FBECDBF8F8780E080
:101DE00061E00E94010981E060E00E94010982E057
:101DF00061E00E9401098F85982F917088E1692F19
:101E00000E9401098F858695982F917089E1692F2D
:101E10000E9401098F8586958695982F91708AE199
:101E2000692F0E9401098F85869586958695982F42
:101E300091708BE1692F0E9401098F8582958F70C7
:101E4000982F91708CE1692F0E9401098F858295EE
:101E500086958770982F91708DE1692F0E940109F6
:101E60008F858295869586958370982F91708EE1E7
:101E7000692F0E9401098F85982F991F9927991F13
:101E80008FE1692F0E94010980E090E0A0E0B0E4BA
:101E90008B879C87AD87BE876B857C858D859E856E
:101EA00020E030E04AEF54E40E941702DC01CB014D
:101EB0008F839887A987BA876F81788589859A8566
:101EC00020E030E040E85FE30E94710388232CF4B7
:101ED00081E090E09E838D833FC06F817885898506
:101EE0009A8520E03FEF4FE757E40E941103181650
:101EF0004CF56B857C858D859E8520E030E040E249
:101F000051E40E941702DC01CB01BC01CD010E940B
:101F10004100DC01CB019E838D830FC088EC90E0F3
:101F20009C838B838B819C810197F1F79C838B83AE
:101F30008D819E8101979E838D838D819E810097E7
:101F400069F714C06F81788589859A850E94410060
:101F5000DC01CB019E838D838D819E819A83898351
:101F600089819A810197F1F79A83898382E060E001
:101F70000E9401092F960FB6F894DEBF0FBECDBFA9
:101F8000CF91DF910895DF93CF9300D00F92CDB71B
:101F9000DEB79B838A8319820EC08981282F30E0A7
:101FA0008A819B81FC01E20FF31F80810E94E40E75
:101FB00089818F5F89838981282F30E08A819B8185
:101FC000FC01E20FF31F8081882339F70F900F90F7
:101FD0000F90CF91DF910895DF93CF93CDB7DEB708
:101FE0002B970FB6F894DEBF0FBECDBFCE01029681
:101FF00098878F83E0E6F0E0FA87E987F5E0FB87D2
:10200000E985FA85008089859A8501969A8789876E
:10201000EF81F88500828F819885019698878F835C
:102020009B8591509B87EB85EE2351F719820E9487
:10203000460D80EC0E94670CCE0102960E94C30FF1
:10204000FFCF2F923F924F925F926F927F928F922B
:102050009F92AF92BF92CF92DF92EF92FF920F9337
:102060001F93CF93DF93CDB7DEB7CA1BDB0B0FB641
:10207000F894DEBF0FBECDBF09942A8839884888FE
:102080005F846E847D848C849B84AA84B984C88494
:10209000DF80EE80FD800C811B81AA81B981CE0F8B
:1020A000D11D0FB6F894DEBF0FBECDBFED01089570
:0420B000F894FFCFD2
:0E20B40068656261000000000000000000008E
:00000001FF
