:100000000C942A000C94480A0C94750A0C9447002E
:100010000C9447000C9447000C9447000C94470044
:100020000C9447000C9447000C94DB0F0C940810C0
:100030000C9447000C9447000C9447000C94470024
:100040000C9447000C9447000C9447000C94470014
:100050000C94470011241FBECFE5D8E0DEBFCDBF12
:1000600011E0A0E6B0E0E6E1F5E202C005900D92F5
:10007000A438B107D9F711E0A4E8B1E001C01D929E
:10008000AF39B107E1F70E94AB100C9489120C94C0
:100090000000EF92FF920F931F937B018C0120E0F1
:1000A00030E040E05FE40E94490388238CF0C801FF
:1000B000B70120E030E040E05FE40E94C1010E940F
:1000C000A9039B01AC01205030404040504806C07D
:1000D000C801B7010E94A9039B01AC01B901CA0183
:1000E0001F910F91FF90EF900895A0E0B0E0EBE733
:1000F000F0E00C945212DC012B01FA019C91923039
:1001000008F439C1EB018881823008F433C194309E
:1001100069F4843009F02FC111969C91119789815F
:10012000981709F428C1ABE7B0E025C1843009F481
:1001300021C18230A9F4923009F01DC19A01AD01AC
:1001400088E0EA010990AE01E90109929E0181501F
:10015000C1F7E201898111969C918923818308C1AD
:10016000923009F407C112962D903C901397EB0141
:100170008A819B811496AD90BD90CD90DC901797AD
:10018000EC80FD800E811F819101281B390BB90184
:1001900037FF04C066277727621B730B6032710537
:1001A0000CF061C0121613066CF537014801062EDB
:1001B00004C096948794779467940A94D2F721E0C8
:1001C00030E040E050E004C0220F331F441F551FB1
:1001D0006A95D2F721503040404050402E213F21B7
:1001E00040235123211531054105510521F021E01E
:1001F00030E040E050E079018A01E628F72808293C
:1002000019293CC0232BD1F1260E371E350146019A
:10021000062E04C096948794779467940A94D2F734
:1002200021E030E040E050E004C0220F331F441FC3
:10023000551F6A95D2F721503040404050402A2146
:100240003B214C215D21211531054105510521F04E
:1002500021E030E040E050E059016A01A628B728CB
:10026000C828D9280BC0821593052CF01C01AA249C
:10027000BB24650103C0EE24FF24870111969C91E5
:10028000D20111968C91981709F445C0992339F041
:10029000A80197012A193B094C095D0906C0A6016E
:1002A00095012E193F09400B510B57FD08C01182D3
:1002B0003382228224833583468357831DC081E0A5
:1002C00081833382228288279927DC01821B930B4A
:1002D000A40BB50B84839583A683B7830DC0220F2F
:1002E000331F441F551F24833583468357838281E0
:1002F000938101979383828324813581468157813D
:10030000DA01C9010197A109B1098F5F9F4FAF4F72
:10031000BF4328F30BC0918333822282EA0CFB1C7B
:100320000C1D1D1DE482F5820683178383E0808304
:10033000248135814681578157FF1AC0C901AA27F8
:1003400097FDA095BA2F81709070A070B0705695EF
:10035000479537952795822B932BA42BB52B848318
:100360009583A683B7838281938101969383828349
:10037000DF0101C0D201CD01CDB7DEB7E2E10C94BF
:100380006E12A0E2B0E0E7ECF1E00C945E1269833B
:100390007A838B839C832D833E834F835887E9E048
:1003A000EE2EF12CEC0EFD1ECE010196B7010E943F
:1003B0009A058E010F5E1F4FCE010596B8010E946F
:1003C0009A058A8991E089278A8BC701B801AE0115
:1003D000475E5F4F0E9475000E94C504A096E6E04C
:1003E0000C947A12A0E2B0E0E8EFF1E00C945E1217
:1003F00069837A838B839C832D833E834F835887C5
:10040000F9E0EF2EF12CEC0EFD1ECE010196B701A6
:100410000E949A058E010F5E1F4FCE010596B8010E
:100420000E949A05C701B801AE01475E5F4F0E9466
:1004300075000E94C504A096E6E00C947A12A0E232
:10044000B0E0E5E2F2E00C94521269837A838B8388
:100450009C832D833E834F835887CE010196BE0136
:10046000675F7F4F0E949A05CE010596BE016F5EC1
:100470007F4F0E949A059985923088F08989823051
:10048000C8F0943019F4823051F404C0843029F457
:10049000923081F48BE790E0C6C0923049F420E0BE
:1004A0009A858A89981321E02A87CE010996BBC0D4
:1004B000823049F420E09A858A89981321E02A8BBA
:1004C000CE014196B0C02D843E844F8458886D88FB
:1004D0007E888F88988CEE24FF248701AA24BB2471
:1004E000650140E050E060E070E0E0E0F0E0C10174
:1004F00081709070892BE9F0E60CF71C081D191D1E
:100500009A01AB012A0D3B1D4C1D5D1D80E090E062
:10051000A0E0B0E0E614F7040805190520F481E036
:1005200090E0A0E0B0E0BA01A901480F591F6A1F8E
:100530007B1FAA0CBB1CCC1CDD1C97FE08C081E0F5
:1005400090E0A0E0B0E0A82AB92ACA2ADB2A3196B6
:10055000E032F10549F0660C771C881C991C569412
:10056000479437942794C3CFFA85EA892B893C892D
:100570008B859C85280F391F2E5F3F4F17C0CA01FE
:1005800081709070892B61F016950795F794E79428
:1005900080E090E0A0E0B0E8E82AF92A0A2B1B2BC3
:1005A00076956795579547952F5F3F4F77FDE7CF36
:1005B0000CC0440F551F661F771F17FD4160EE0CDE
:1005C000FF1C001F111F21503040403090E05907A0
:1005D00090E0690790E4790760F32B8F3C8FDB0193
:1005E000CA018F779070A070B07080349105A1051A
:1005F000B10561F447FD0AC0E114F10401051105DC
:1006000029F0405C5F4F6F4F7F4F40781A8EFE1786
:1006100011F081E08A8F4D8F5E8F6F8F78A383E01A
:10062000898FCE0149960E94C504A096E2E10C9400
:100630006E12A8E1B0E0EFE1F3E00C945E12698382
:100640007A838B839C832D833E834F83588789E0F5
:10065000E82EF12CEC0EFD1ECE010196B7010E9492
:100660009A058E010F5E1F4FCE010596B8010E94BC
:100670009A058985823040F08989823028F0C70147
:10068000B8010E94120601C08FEF6896E6E00C9454
:100690007A12A8E1B0E0EFE4F3E00C945E12698313
:1006A0007A838B839C832D833E834F83588789E095
:1006B000E82EF12CEC0EFD1ECE010196B7010E9432
:1006C0009A058E010F5E1F4FCE010596B8010E945C
:1006D0009A058985823040F08989823028F0C701E7
:1006E000B8010E94120601C08FEF6896E6E00C94F4
:1006F0007A12A8E1B0E0EFE7F3E00C945E126983B0
:100700007A838B839C832D833E834F83588789E034
:10071000E82EF12CEC0EFD1ECE010196B7010E94D1
:100720009A058E010F5E1F4FCE010596B8010E94FB
:100730009A058985823040F08989823028F0C70186
:10074000B8010E94120601C081E06896E6E00C94B0
:100750007A12ACE0B0E0EFEAF3E00C946212698345
:100760007A838B839C83CE010196BE016B5F7F4FA2
:100770000E949A058D81823061F1823050F184307F
:1007800021F48E81882351F12EC02F81388537FDC9
:1007900020C06E812F3131051CF06623F9F023C093
:1007A0008EE190E0821B930B29853A854B855C8511
:1007B00004C056954795379527958A95D2F76623B5
:1007C000B1F050954095309521953F4F4F4F5F4F79
:1007D0000EC020E030E040E050E009C02FEF3FEFD6
:1007E0004FEF5FE704C020E030E040E050E8B9019F
:1007F000CA012C96E2E00C947E12A8E0B0E0E3E09F
:10080000F4E00C945A127B018C016115710581058D
:10081000910519F482E0898360C083E089838EE1C9
:10082000C82ED12CDC82CB82ED82FE820F8318870A
:10083000C801B7010E947604FC013197F7FF3BC065
:10084000222733272E1B3F0B57016801022E04C0BD
:10085000D694C794B794A7940A94D2F740E050E096
:1008600060E070E081E090E0A0E0B0E004C0880FBC
:10087000991FAA1FBB1F2A95D2F70197A109B10999
:100880008E219F21A023B1230097A105B10521F05E
:1008900041E050E060E070E04A295B296C297D2945
:1008A0004D835E836F8378878EE190E08E1B9F0B74
:1008B0009C838B8312C0309781F00E2E04C0EE0C07
:1008C000FF1C001F111F0A94D2F7ED82FE820F83D6
:1008D0001887CE1ADF0ADC82CB821A82CE010196FB
:1008E0000E94C5042896EAE00C947612EF92FF92DB
:1008F0000F931F937B018C0180E0E81680E0F806DF
:1009000081E0080780E0180788F48FEFE816F1040B
:100910000105110531F028F088E090E0A0E0B0E09A
:1009200017C080E090E0A0E0B0E012C080E0E816E0
:1009300080E0F80680E0080781E0180728F088E1E9
:1009400090E0A0E0B0E004C080E190E0A0E0B0E082
:1009500020E230E040E050E0281B390B4A0B5B0BF3
:1009600004C016950795F794E7948A95D2F7F70196
:10097000ED57FF4F8081281B310941095109C901F9
:100980001F910F91FF90EF900895DF92EF92FF92E9
:100990000F931F93FC01E480F58006811781D180BD
:1009A0008081823048F480E090E0A0E1B0E0E82A65
:1009B000F92A0A2B1B2BA5C0843009F49FC0823072
:1009C00021F4EE24FF24870105C0E114F1040105A0
:1009D000110519F4E0E0F0E096C0628173819FEFA9
:1009E000623879070CF05BC022E83FEF261B370B1B
:1009F0002A3131052CF020E030E040E050E02AC000
:100A0000B801A701022E04C07695679557954795C2
:100A10000A94D2F781E090E0A0E0B0E004C0880F33
:100A2000991FAA1FBB1F2A95D2F70197A109B109E7
:100A30008E219F21A023B1230097A105B10521F0AC
:100A400081E090E0A0E0B0E09A01AB01282B392BC7
:100A50004A2B5B2BDA01C9018F779070A070B070C0
:100A600080349105A105B10539F427FF09C0205C48
:100A70003F4F4F4F5F4F04C0215C3F4F4F4F5F4F81
:100A8000E0E0F0E02030A0E03A07A0E04A07A0E470
:100A90005A0710F0E1E0F0E079018A0127C06038E0
:100AA000710564F5FB01E158FF4FD801C7018F774D
:100AB0009070A070B07080349105A105B10539F433
:100AC000E7FE0DC080E490E0A0E0B0E004C08FE35A
:100AD00090E0A0E0B0E0E80EF91E0A1F1B1F17FF10
:100AE00005C016950795F794E794319687E016951B
:100AF0000795F794E7948A95D1F705C0EE24FF2473
:100B00008701EFEFF0E06E2F679566276795902FCE
:100B10009F77D794DD24D7948E2F8695492F462B27
:100B2000582F5D29B701CA011F910F91FF90EF90D7
:100B3000DF900895FC01DB01408151812281622F09
:100B40006F7770E0221F2227221F9381892F880F41
:100B5000822B282F30E0991F9927991F11969C937B
:100B6000119721153105A9F541155105610571054B
:100B700011F482E037C082E89FEF13969C938E9326
:100B800012979A01AB0167E0220F331F441F551FD4
:100B90006A95D1F783E08C930DC0220F331F441F59
:100BA000551F12968D919C911397019713969C93C4
:100BB0008E931297203080E0380780E0480780E469
:100BC000580758F314962D933D934D935C931797C4
:100BD00008952F3F310579F44115510561057105DF
:100BE00019F484E08C93089564FF03C081E08C9332
:100BF00012C01C9210C02F57304013963C932E9376
:100C0000129783E08C9387E0440F551F661F771F70
:100C10008A95D1F7706414964D935D936D937C9390
:100C2000179708951F93DC01FB019C91923008F403
:100C300047C08081823008F443C0943051F411964B
:100C40001C91843099F58181682F70E0611B7109D6
:100C50003FC0843021F0923031F48230B9F181818B
:100C6000882389F12DC011961C9111978230F1F0E3
:100C700081811817D9F412962D913C911397828196
:100C800093818217930794F028173907BCF01496C4
:100C90008D919D910D90BC91A02D2481358146812F
:100CA0005781281739074A075B0718F4112341F0C9
:100CB0000AC082179307A407B50740F4112319F05F
:100CC00061E070E005C06FEF7FEF02C060E070E0B0
:100CD000CB011F910895DF93CF93CDB7DEB7279750
:100CE0000FB6F894DEBF0FBECDBF89836A834B83F6
:100CF0008B81813009F06FC08981282F30E03F83DC
:100D00002E838E819F818130910549F12E813F8113
:100D1000223031052CF48E819F81009761F0D2C082
:100D20002E813F812230310571F18E819F81833088
:100D30009105E9F1C7C0AAE3B0E0EAE3F0E0808101
:100D4000482F8A81282F30E081E090E0022E02C0F7
:100D5000880F991F0A94E2F7842B8C93B3C0A7E302
:100D6000B0E0E7E3F0E08081482F8A81282F30E06F
:100D700081E090E0022E02C0880F991F0A94E2F7EA
:100D8000842B8C939FC0A4E3B0E0E4E3F0E0808187
:100D9000482F8A81282F30E081E090E0022E02C0A7
:100DA000880F991F0A94E2F7842B8C938BC0A1E3E0
:100DB000B0E0E1E3F0E08081482F8A81282F30E025
:100DC00081E090E0022E02C0880F991F0A94E2F79A
:100DD000842B8C9377C08B81882309F073C0898121
:100DE000282F30E03D832C838C819D8181309105BB
:100DF00059F12C813D81223031052CF48C819D816B
:100E0000009769F05FC02C813D812230310589F166
:100E10008C819D818330910509F440C053C0AAE3C1
:100E2000B0E0EAE3F0E08081482F8A81282F30E0AB
:100E300081E090E0022E02C0880F991F0A94E2F729
:100E4000809584238C933EC0A7E3B0E0E7E3F0E015
:100E50008081482F8A81282F30E081E090E0022EA7
:100E600002C0880F991F0A94E2F7809584238C931F
:100E700029C0A4E3B0E0E4E3F0E08081482F8A8158
:100E8000282F30E081E090E0022E02C0880F991FE9
:100E90000A94E2F7809584238C9314C0A1E3B0E018
:100EA000E1E3F0E08081482F8A81282F30E081E063
:100EB00090E0022E02C0880F991F0A94E2F78095F5
:100EC00084238C9327960FB6F894DEBF0FBECDBF58
:100ED000CF91DF910895DF93CF93CDB7DEB72797FA
:100EE0000FB6F894DEBF0FBECDBF89836A834B83F4
:100EF0008B81813009F06FC08981282F30E03F83DA
:100F00002E838E819F818130910549F12E813F8111
:100F1000223031052CF48E819F81009761F0D2C080
:100F20002E813F812230310571F18E819F81833086
:100F30009105E9F1C7C0ABE3B0E0EBE3F0E08081FD
:100F4000482F8A81282F30E081E090E0022E02C0F5
:100F5000880F991F0A94E2F7842B8C93B3C0A8E3FF
:100F6000B0E0E8E3F0E08081482F8A81282F30E06C
:100F700081E090E0022E02C0880F991F0A94E2F7E8
:100F8000842B8C939FC0A5E3B0E0E5E3F0E0808183
:100F9000482F8A81282F30E081E090E0022E02C0A5
:100FA000880F991F0A94E2F7842B8C938BC0A2E3DD
:100FB000B0E0E2E3F0E08081482F8A81282F30E022
:100FC00081E090E0022E02C0880F991F0A94E2F798
:100FD000842B8C9377C08B81882309F073C089811F
:100FE000282F30E03D832C838C819D8181309105B9
:100FF00059F12C813D81223031052CF48C819D8169
:10100000009769F05FC02C813D812230310589F164
:101010008C819D818330910509F440C053C0ABE3BE
:10102000B0E0EBE3F0E08081482F8A81282F30E0A8
:1010300081E090E0022E02C0880F991F0A94E2F727
:10104000809584238C933EC0A8E3B0E0E8E3F0E011
:101050008081482F8A81282F30E081E090E0022EA5
:1010600002C0880F991F0A94E2F7809584238C931D
:1010700029C0A5E3B0E0E5E3F0E08081482F8A8154
:10108000282F30E081E090E0022E02C0880F991FE7
:101090000A94E2F7809584238C9314C0A2E3B0E015
:1010A000E2E3F0E08081482F8A81282F30E081E060
:1010B00090E0022E02C0880F991F0A94E2F78095F3
:1010C00084238C9327960FB6F894DEBF0FBECDBF56
:1010D000CF91DF910895DF93CF9300D000D00F928E
:1010E000CDB7DEB78A836B8319828A81282F30E0DF
:1010F0003D832C834C815D814130510541F18C81D0
:101100009D818230910534F42C813D81211531057A
:1011100061F052C04C815D814230510551F18C81AA
:101120009D8183309105B9F147C0E9E3F0E080810A
:10113000282F30E08B81882F90E0A90102C05595BF
:1011400047958A95E2F7CA018170898335C0E6E345
:10115000F0E08081282F30E08B81882F90E0A9017A
:1011600002C0559547958A95E2F7CA018170898337
:1011700023C0E3E3F0E08081282F30E08B81882FCB
:1011800090E0A90102C0559547958A95E2F7CA01FA
:101190008170898311C0E0E3F0E08081282F30E086
:1011A0008B81882F90E0A90102C0559547958A95BB
:1011B000E2F7CA018170898389810F900F900F90A7
:1011C0000F900F90CF91DF910895DF93CF9300D0D0
:1011D00000D0CDB7DEB789836A838981282F30E0BC
:1011E0003C832B838B819C818130910549F12B813C
:1011F0003C81223031052CF48B819C81009761F079
:101200005AC02B813C812230310571F18B819C8148
:1012100083309105E9F14FC0ABE3B0E0EBE3F0E0E0
:101220008081482F8A81282F30E081E090E0022ED3
:1012300002C0880F991F0A94E2F784278C933BC061
:10124000A8E3B0E0E8E3F0E08081482F8A81282F0E
:1012500030E081E090E0022E02C0880F991F0A94CE
:10126000E2F784278C9327C0A5E3B0E0E5E3F0E044
:101270008081482F8A81282F30E081E090E0022E83
:1012800002C0880F991F0A94E2F784278C9313C039
:10129000A2E3B0E0E2E3F0E08081482F8A81282FCA
:1012A00030E081E090E0022E02C0880F991F0A947E
:1012B000E2F784278C930F900F900F900F90CF91AF
:1012C000DF910895DF93CF9300D000D0CDB7DEB784
:1012D00089836A838981282F30E03C832B838B812B
:1012E0009C8181309105D1F02B813C8122303105E8
:1012F0002CF48B819C81009761F01EC02B813C8176
:101300002230310581F08B819C818330910581F001
:1013100013C0EAE3F0E08A8180830EC0E7E3F0E0E7
:101320008A81808309C0E4E3F0E08A81808304C07D
:10133000E1E3F0E08A8180830F900F900F900F908F
:10134000CF91DF910895DF93CF9300D000D0CDB738
:10135000DEB789836A838981282F30E03C832B8321
:101360008B819C8181309105D1F02B813C81223091
:1013700031052CF48B819C81009761F01EC02B817C
:101380003C812230310581F08B819C818330910535
:1013900081F013C0EBE3F0E08A8180830EC0E8E3C4
:1013A000F0E08A81808309C0E5E3F0E08A818083F0
:1013B00004C0E2E3F0E08A8180830F900F900F90E9
:1013C0000F90CF91DF910895DF93CF93CDB7DEB724
:1013D000EBE5F0E0808180648083E5E5F0E08081EA
:1013E00083608083EBE5F0E080818F778083CF910D
:1013F000DF910895DF93CF930F92CDB7DEB7898346
:10140000E5E5F0E089818370982F937080818C7F6F
:10141000892B80830F90CF91DF910895DF93CF9335
:101420000F92CDB7DEB78983E5E5F0E0898183705F
:101430008370982F990F990F8081837F892B8083E8
:101440000F90CF91DF910895DF93CF9300D0CDB768
:10145000DEB79A83898389819A81909385018093ED
:1014600084010F900F90CF91DF910895DF93CF9378
:1014700000D0CDB7DEB79A83898389819A81909312
:101480008701809386010F900F90CF91DF9108958F
:101490001F920F920FB60F9211242F933F934F93E9
:1014A0005F936F937F938F939F93AF93BF93EF93CC
:1014B000FF93DF93CF93CDB7DEB7E0918401F09136
:1014C00085010995CF91DF91FF91EF91BF91AF9188
:1014D0009F918F917F916F915F914F913F912F914C
:1014E0000F900FBE0F901F9018951F920F920FB67E
:1014F0000F9211242F933F934F935F936F937F939A
:101500008F939F93AF93BF93EF93FF93DF93CF930B
:10151000CDB7DEB7E0918601F09187010995CF91B3
:10152000DF91FF91EF91BF91AF919F918F917F914B
:101530006F915F914F913F912F910F900FBE0F9040
:101540001F901895DF93CF93CDB7DEB7E8970FB60E
:10155000F894DEBF0FBECDBF81E06FEF0E9462093D
:1015600080E060E041E00E946B0680E061E041E0E5
:101570000E946B0680E062E041E00E946B0680E022
:1015800090E0A0E2B2E48DAB9EABAFABB8AF6DA97B
:101590007EA98FA998AD20E030E04AEF54E40E9484
:1015A0001F02DC01CB0189AB9AABABABBCAB69A929
:1015B0007AA98BA99CA920E030E040E85FE30E9473
:1015C000790388232CF481E090E098AB8FA73FC08B
:1015D00069A97AA98BA99CA920E03FEF4FE757E4BE
:1015E0000E94190318164CF56DA97EA98FA998AD14
:1015F00020E030E040E251E40E941F02DC01CB0118
:10160000BC01CD010E944900DC01CB0198AB8FA742
:101610000FC088EC90E09EA78DA78DA59EA5019791
:10162000F1F79EA78DA78FA598A9019798AB8FA7D3
:101630008FA598A9009769F714C069A97AA98BA901
:101640009CA90E944900DC01CB0198AB8FA78FA514
:1016500098A99CA78BA78BA59CA50197F1F79CA7A0
:101660008BA788E30E94990C80E090E0A0E8BFE39C
:101670008FA398A7A9A7BAA76FA178A589A59AA5AE
:1016800020E030E04AEF54E40E941F02DC01CB016D
:101690008BA39CA3ADA3BEA36BA17CA18DA19EA196
:1016A00020E030E040E85FE30E94790388232CF4D7
:1016B00081E090E09AA389A33FC06BA17CA18DA19A
:1016C0009EA120E03FEF4FE757E40E941903181650
:1016D0004CF56FA178A589A59AA520E030E040E2FD
:1016E00051E40E941F02DC01CB01BC01CD010E942C
:1016F0004900DC01CB019AA389A30FC088EC90E0DC
:1017000098A38F8F8F8D98A10197F1F798A38F8F52
:1017100089A19AA101979AA389A389A19AA1009767
:1017200069F714C06BA17CA18DA19EA10E94490004
:10173000DC01CB019AA389A389A19AA19E8F8D8FE9
:101740008D8D9E8D0197F1F79E8F8D8F8CE00E947D
:10175000990C80E090E0A0E8BFE3898F9A8FAB8F6F
:10176000BC8F698D7A8D8B8D9C8D20E030E04AEFA7
:1017700054E40E941F02DC01CB018D8B9E8BAF8B4A
:10178000B88F6D897E898F89988D20E030E040E8A0
:101790005FE30E94790388232CF481E090E09C8B26
:1017A0008B8B3FC06D897E898F89988D20E03FEFBC
:1017B0004FE757E40E94190318164CF5698D7A8D8E
:1017C0008B8D9C8D20E030E040E251E40E941F02AE
:1017D000DC01CB01BC01CD010E944900DC01CB0141
:1017E0009C8B8B8B0FC088EC90E09A8B898B8989BE
:1017F0009A890197F1F79A8B898B8B899C8901973C
:101800009C8B8B8B8B899C89009769F714C06D89A1
:101810007E898F89988D0E944900DC01CB019C8BC9
:101820008B8B8B899C89988B8F878F859889019763
:10183000F1F7988B8F8781E00E94990C80E090E00F
:10184000A0E8BFE38B879C87AD87BE876B857C85CF
:101850008D859E8520E030E04AEF54E40E941F020F
:10186000DC01CB018F839887A987BA876F81788540
:1018700089859A8520E030E040E85FE30E947903A3
:1018800088232CF481E090E09E838D833FC06F819C
:10189000788589859A8520E03FEF4FE757E40E94DD
:1018A000190318164CF56B857C858D859E8520E087
:1018B00030E040E251E40E941F02DC01CB01BC0198
:1018C000CD010E944900DC01CB019E838D830FC0B6
:1018D00088EC90E09C838B838B819C810197F1F74E
:1018E0009C838B838D819E8101979E838D838D81C7
:1018F0009E81009769F714C06F81788589859A85E4
:101900000E944900DC01CB019E838D838D819E81E5
:101910009A83898389819A810197F1F79A838983D0
:10192000E8960FB6F894DEBF0FBECDBFCF91DF9122
:101930000895DF93CF93CDB7DEB72F970FB6F89406
:10194000DEBF0FBECDBF8F8780E060E040E00E9429
:101950006B0780E061E040E00E946B0781E06F85EB
:101960000E94A30980E062E041E00E946B0780E0F2
:1019700090E0A0EAB0E48B879C87AD87BE876B853B
:101980007C858D859E8520E030E04AEF54E40E94FE
:101990001F02DC01CB018F839887A987BA876F81EB
:1019A000788589859A8520E030E040E85FE30E94F1
:1019B000790388232CF481E090E09E838D833FC0DF
:1019C0006F81788589859A8520E03FEF4FE757E45E
:1019D0000E94190318164CF56B857C858D859E85B4
:1019E00020E030E040E251E40E941F02DC01CB0124
:1019F000BC01CD010E944900DC01CB019E838D8397
:101A00000FC088EC90E09C838B838B819C81019735
:101A1000F1F79C838B838D819E8101979E838D83BB
:101A20008D819E81009769F714C06F8178858985C3
:101A30009A850E944900DC01CB019E838D838D81B4
:101A40009E819A83898389819A810197F1F79A838C
:101A5000898380E062E040E00E946B072F960FB61A
:101A6000F894DEBF0FBECDBFCF91DF910895DF9315
:101A7000CF93CDB7DEB72F970FB6F894DEBF0FBE6A
:101A8000CDBF8F8780E060E041E00E946B0780E07F
:101A900061E040E00E946B0781E06F850E94A3092E
:101AA00080E062E041E00E946B0780E090E0A0EA05
:101AB000B0E48B879C87AD87BE876B857C858D85E1
:101AC0009E8520E030E04AEF54E40E941F02DC01D2
:101AD000CB018F839887A987BA876F81788589859D
:101AE0009A8520E030E040E85FE30E947903882394
:101AF0002CF481E090E09E838D833FC06F817885D8
:101B000089859A8520E03FEF4FE757E40E9419034B
:101B100018164CF56B857C858D859E8520E030E020
:101B200040E251E40E941F02DC01CB01BC01CD0167
:101B30000E944900DC01CB019E838D830FC088EC9D
:101B400090E09C838B838B819C810197F1F79C8330
:101B50008B838D819E8101979E838D838D819E8154
:101B6000009769F714C06F81788589859A850E94EE
:101B70004900DC01CB019E838D838D819E819A83F8
:101B8000898389819A810197F1F79A83898380E01B
:101B900062E040E00E946B072F960FB6F894DEBF1C
:101BA0000FBECDBFCF91DF910895DF93CF9300D0CB
:101BB0000F92CDB7DEB79B838A8319820EC08981CD
:101BC000282F30E08A819B81FC01E20FF31F808186
:101BD0000E94370D89818F5F89838981282F30E0AA
:101BE0008A819B81FC01E20FF31F8081882339F7F2
:101BF0000F900F900F90CF91DF910895DF93CF93C7
:101C000000D000D0CDB7DEB79C838B8381E090E01D
:101C10009A83898389819A819C01220F331FC9018C
:101C2000880F991F880F991FF901E80FF91F8B8101
:101C30009C812AE030E0B9010E9409128E0F9F1F9B
:101C40009A8389838B819C812AE030E0B9010E94CC
:101C50000912CB019C838B838B819C810097D1F6E9
:101C600014C089819A812AE030E0B9010E940912EA
:101C7000805D0E94370D89819A812AE030E0B901A8
:101C80000E940912CB019A83898389819A818A30C3
:101C9000910538F70F900F900F900F90CF91DF9133
:101CA0000895DF93CF9300D000D00F92CDB7DEB769
:101CB0009C838B836D838D81883018F58D81882F6F
:101CC00090E0880F991F880F991F880F991F8A83AA
:101CD0008A8180648A838A810E94990C19820EC04D
:101CE0008981282F30E08B819C81FC01E20FF31F5A
:101CF00080810E94370D89818F5F89838981883037
:101D000078F30F900F900F900F900F90CF91DF917D
:101D10000895DF93CF93CDB7DEB72E970FB6F89423
:101D2000DEBF0FBECDBF80E090E0A0E8BFE38B87B1
:101D30009C87AD87BE876B857C858D859E8520E0E1
:101D400030E04AEF54E40E941F02DC01CB018F8394
:101D50009887A987BA876F81788589859A8520E0D9
:101D600030E040E85FE30E94790388232CF481E0AF
:101D700090E09E838D833FC06F81788589859A85A9
:101D800020E03FEF4FE757E40E94190318164CF587
:101D90006B857C858D859E8520E030E040E251E4B6
:101DA0000E941F02DC01CB01BC01CD010E94490051
:101DB000DC01CB019E838D830FC088EC90E09C8377
:101DC0008B838B819C810197F1F79C838B838D8121
:101DD0009E8101979E838D838D819E81009769F7F7
:101DE00014C06F81788589859A850E944900DC013D
:101DF000CB019E838D838D819E819A838983898186
:101E00009A810197F1F79A8389832E960FB6F894F9
:101E1000DEBF0FBECDBFCF91DF910895DF93CF938B
:101E200000D0CDB7DEB789836A838981882329F4FE
:101E30008A8180580E94990C07C08981813021F4E1
:101E40008A8180540E94990C0F900F90CF91DF915E
:101E50000895DF93CF93CDB7DEB7E3E5F0E084E0FC
:101E60008083A3E5B0E0E3E5F0E080818F7B8C9395
:101E7000A3E5B0E0E3E5F0E08081877F8C93A9E5FE
:101E8000B0E0E9E5F0E0808181608C93E2E5F0E08C
:101E90001082A3E5B0E0E3E5F0E080818F7E8C93D3
:101EA000A3E5B0E0E3E5F0E080818F7D8C93CF91F6
:101EB000DF910895DF93CF93CDB7DEB7AFE5B0E004
:101EC000EFE5F0E0808180688C93CF91DF910895F9
:101ED000DF93CF93CDB7DEB7AFE5B0E0EFE5F0E04D
:101EE00080818F778C93CF91DF910895DF93CF938B
:101EF0000F92CDB7DEB78983ECE5F0E0898180836E
:101F00000F90CF91DF910895DF93CF9300D0CDB79D
:101F1000DEB78A838A81882F90E0982F882724E66D
:101F200030E0B9010E941D12CB018983ECE5F0E09D
:101F3000898180830F900F90CF91DF910895DF9377
:101F4000CF93CDB7DEB7E2E5F0E08081CF91DF91AE
:101F50000895DF93CF930F92CDB7DEB78983E2E583
:101F6000F0E0898180830F90CF91DF910895DF9316
:101F7000CF9300D0CDB7DEB79A83898389819A81C8
:101F800090938B0180938A010F900F90CF91DF91F6
:101F90000895DF93CF9300D0CDB7DEB79A838983BE
:101FA00089819A8190938901809388010F900F9085
:101FB000CF91DF9108951F920F920FB60F921124C7
:101FC0002F933F934F935F936F937F938F939F9341
:101FD000AF93BF93EF93FF93DF93CF93CDB7DEB76C
:101FE000E0918A01F0918B010995CF91DF91FF91EA
:101FF000EF91BF91AF919F918F917F916F915F9181
:102000004F913F912F910F900FBE0F901F901895F9
:102010001F920F920FB60F9211242F933F934F935D
:102020005F936F937F938F939F93AF93BF93EF9340
:10203000FF93DF93CF93CDB7DEB7E0918801F091A6
:1020400089010995CF91DF91FF91EF91BF91AF91F8
:102050009F918F917F916F915F914F913F912F91C0
:102060000F900FBE0F901F901895DF93CF93CDB7B1
:10207000DEB7AFE4B0E0EFE4F0E080818E7F8C93D8
:10208000AFE4B0E0EFE4F0E0808182608C93AEE4F6
:10209000B0E0EEE4F0E0808188608C93AEE4B0E0E4
:1020A000EEE4F0E0808180618C93E6E4F0E088EB80
:1020B0009BE091838083AEE4B0E0EEE4F0E08081C9
:1020C00084608C93AEE4B0E0EEE4F0E080818D7F3C
:1020D0008C93AEE4B0E0EEE4F0E080818E7F8C93F0
:1020E000AFE4B0E0EFE4F0E080818F7B8C93AFE46D
:1020F000B0E0EFE4F0E0808180688C93EAE4F0E007
:1021000088EE93E091838083CF91DF910895DF93F0
:10211000CF9300D0CDB7DEB79A838983EAE4F0E0AD
:1021200089819A81918380830F900F90CF91DF9165
:102130000895DF93CF9300D0CDB7DEB79A8389831C
:10214000E8E4F0E089819A81918380830F900F9079
:10215000CF91DF910895EF92FF920F931F93DF933A
:10216000CF93CDB7DEB70E9435100E94E4090E94DC
:10217000A20A83E065E041E00E946B0683E062E032
:1021800040E00E946B060E945A0F8FE691E10E9488
:10219000C90F8BE791E10E94240A80918D01813063
:1021A000E1F780918F0190919001A0919101B09100
:1021B000920124E630E040E050E0BC01CD010E94F5
:1021C000EA117B018C0120918F01309190014091A7
:1021D0009101509192018091930190919401A0916D
:1021E0009501B0919601280F391F4A1F5B1FC80146
:1021F000B7010E943012DA01C901BC01CD010E9471
:10220000FD03DC01CB018093970190939801A0938B
:102210009901B0939A0120918F01309190014091E2
:102220009101509192018091930190919401A0911C
:102230009501B0919601280F391F4A1F5B1F82E15B
:102240009AE7A0E0B0E0BC01CD010E943012DA01B3
:10225000C901BC01CD010E94FD03DC01CB018093CB
:102260009B0190939C01A0939D01B0939E011092BD
:102270008D0180E80E94990C80E690E00E94D50DC7
:102280008091970190919801A0919901B0919A0144
:10229000BC01CD010E944900DC01CB010E94FE0D72
:1022A00085E20E94370D80EC0E94990C8CE690E04C
:1022B0000E94D50D80919B0190919C01A0919D0160
:1022C000B0919E01BC01CD010E944900DC01CB010F
:1022D0000E94FE0D88E790E00E94D50D5ECFDF934F
:1022E000CF93CDB7DEB780918E018F5F80938E0143
:1022F000CF91DF910895DF93CF9300D0CDB7DEB7B4
:1023000080918C01882359F40E94290F82E00E9459
:10231000FA0910928E0181E080938C0156C0809161
:102320008C01813031F50E949F0F8A8380E00E94EA
:10233000A90F8A81282F30E080918E01882F90E0AC
:10234000982F8827820F931FAA2797FDA095BA2F51
:1023500080938F0190939001A0939101B09392018B
:1023600083E00E94FA0910928E0182E080938C0132
:102370002CC080918C01823041F50E949F0F89838F
:1023800080E00E94A90F8981282F30E080918E0182
:10239000882F90E0982F8827820F931FAA2797FDF8
:1023A000A095BA2F8093930190939401A0939501E7
:1023B000B093960182E00E94FA0910928E0181E0AA
:1023C00080938C0181E080938D010F900F90CF91CD
:1023D000DF910895629FD001739FF001829FE00D0D
:1023E000F11D649FE00DF11D929FF00D839FF00D94
:1023F000749FF00D659FF00D9927729FB00DE11D40
:10240000F91F639FB00DE11DF91FBD01CF0111241C
:102410000895AA1BBB1B51E107C0AA1FBB1FA6172B
:10242000B70710F0A61BB70B881F991F5A95A9F77D
:1024300080959095BC01CD01089597FB092E072644
:102440000AD077FD04D0E5DF06D000201AF470959D
:1024500061957F4F0895F6F7909581959F4F089568
:10246000A1E21A2EAA1BBB1BFD010DC0AA1FBB1F98
:10247000EE1FFF1FA217B307E407F50720F0A21B0A
:10248000B30BE40BF50B661F771F881F991F1A9477
:1024900069F760957095809590959B01AC01BD01A1
:1024A000CF0108952F923F924F925F926F927F9249
:1024B0008F929F92AF92BF92CF92DF92EF92FF9254
:1024C0000F931F93CF93DF93CDB7DEB7CA1BDB0B00
:1024D0000FB6F894DEBF0FBECDBF09942A883988A5
:1024E00048885F846E847D848C849B84AA84B984AC
:1024F000C884DF80EE80FD800C811B81AA81B981B8
:10250000CE0FD11D0FB6F894DEBF0FBECDBFED01CB
:062510000895F894FFCFCE
:10251600447574794379636C65203D004672657134
:1025260075656E6379203D00485A00000000000082
:102536000000000001020203030303040404040470
:102546000404040505050505050505050505050538
:102556000505050606060606060606060606060618
:102566000606060606060606060606060606060605
:1025760006060607070707070707070707070707E8
:1025860007070707070707070707070707070707D5
:1025960007070707070707070707070707070707C5
:1025A60007070707070707070707070707070707B5
:1025B6000707070808080808080808080808080898
:1025C6000808080808080808080808080808080885
:1025D6000808080808080808080808080808080875
:1025E6000808080808080808080808080808080865
:1025F6000808080808080808080808080808080855
:102606000808080808080808080808080808080844
:102616000808080808080808080808080808080834
:102626000808080808080808080808080808080824
:042636000808080088
:00000001FF
